{
  "contractName": "MyContract",
  "abi": [
    {
      "anonymous": false,
      "inputs": [
        {
          "indexed": false,
          "internalType": "string",
          "name": "message",
          "type": "string"
        }
      ],
      "name": "LogMessage",
      "type": "event"
    },
    {
      "inputs": [],
      "name": "myFunction",
      "outputs": [],
      "stateMutability": "nonpayable",
      "type": "function"
    },
    {
      "inputs": [
        {
          "internalType": "uint256",
          "name": "x",
          "type": "uint256"
        }
      ],
      "name": "set",
      "outputs": [],
      "stateMutability": "nonpayable",
      "type": "function"
    },
    {
      "inputs": [],
      "name": "get",
      "outputs": [
        {
          "internalType": "uint256",
          "name": "",
          "type": "uint256"
        }
      ],
      "stateMutability": "view",
      "type": "function",
      "constant": true
    }
  ],
  "bytecode": "0x608060405234801561001057600080fd5b50610296806100206000396000f3fe608060405234801561001057600080fd5b50600436106100415760003560e01c806360fe47b1146100465780636d4ce63c14610062578063c3780a3a14610080575b600080fd5b610060600480360381019061005b91906100f6565b61008a565b005b61006a610094565b604051610077919061018e565b60405180910390f35b6100886100aa565b005b8060008190555050565b6000600a6000546100a591906101ba565b905090565b7f96561394bac381230de4649200e8831afcab1f451881bbade9ef209f6dd304806040516100d79061016e565b60405180910390a1565b6000813590506100f081610249565b92915050565b60006020828403121561010857600080fd5b6000610116848285016100e1565b91505092915050565b600061012c600d836101a9565b91507f48656c6c6f2c20776f726c6421000000000000000000000000000000000000006000830152602082019050919050565b61016881610210565b82525050565b600060208201905081810360008301526101878161011f565b9050919050565b60006020820190506101a3600083018461015f565b92915050565b600082825260208201905092915050565b60006101c582610210565b91506101d083610210565b9250827fffffffffffffffffffffffffffffffffffffffffffffffffffffffffffffffff038211156102055761020461021a565b5b828201905092915050565b6000819050919050565b7f4e487b7100000000000000000000000000000000000000000000000000000000600052601160045260246000fd5b61025281610210565b811461025d57600080fd5b5056fea264697066735822122043315e77eceb146fc09c7134af0e1a2481fc4bea2b07f0f0b73912ab900e118a64736f6c63430008000033",
  "immutableReferences": {},
  "source": "// SPDX-License-Identifier: MIT\npragma solidity 0.8.0;\n\ncontract MyContract {\n    uint storedData;\n    event LogMessage(string message);\n\n    function myFunction() public {\n        emit LogMessage(\"Hello, world!\");\n    }\n\n    function set(uint x) public {\n        storedData = x;\n    }\n\n    function get() public view returns (uint) {\n        return storedData + 10;\n    }\n}\n",
  "sourcePath": "/home/nicolas/poc/solidity/test3/contracts/MyContract.sol",
  "compiler": {
    "name": "solc",
    "version": "0.8.0+commit.c7dfd78e.Emscripten.clang"
  },
  "schemaVersion": "3.4.11",
  "updatedAt": "2022-12-11T15:31:11.209Z",
  "networkType": "ethereum",
  "devdoc": {
    "kind": "dev",
    "methods": {},
    "version": 1
  },
  "userdoc": {
    "kind": "user",
    "methods": {},
    "version": 1
  }
}